:100000000C945E000C9486000C9486000C94860080
:100010000C9486000C9486000C9486000C94860048
:100020000C9486000C9486000C9486000C94860038
:100030000C9486000C9486000C9486000C94860028
:100040000C9474190C9486000C9442190C941C198D
:100050000C9486000C9486000C9486000C94860008
:100060000C94BE190C9486000000000024002700A8
:100070002A0000000000250028002B0004040404CE
:100080000404040402020202020203030303030342
:10009000010204081020408001020408102001021F
:1000A00004081020000000080002010000030407FB
:1000B0000000000000000000DD1A342011241FBEE3
:1000C000CFEFD8E0DEBFCDBF23E0A0E8B1E001C0B4
:1000D0001D92A73BB207E1F711E0A0E0B1E0E2E733
:1000E000FAE402C005900D92A038B107D9F710E0EC
:1000F000CDE5D0E004C02197FE010E94F722CC3567
:10010000D107C9F70E94701B0C942C250C94000099
:100110008091DB019091DC01891B990B08952F924E
:100120003F924F925F926F927F928F929F92AF9287
:10013000BF92CF92DF92EF92FF920F931F93CF93D4
:10014000DF93CDB7DEB7AA970FB6F894DEBF0FBE28
:10015000CDBF0D871D8B298F3A8F4B8F5C8F6F8F93
:100160007BA3FE8EED8EE0915F03F0916003892BFF
:1001700021F0E0916103F0916203FF27EE0FFF1F72
:10018000EE0FFF1FED59FC4F6081718182819381D9
:1001900024E630E040E050E00E94D521522E632E4C
:1001A000742E852E962E7A8B898B492E86017501A9
:1001B000110FEE08FE2C87019501A6016E2D7E2DF4
:1001C0008E2D9E2D0FE10E94A022A12CEAECBE2EC6
:1001D000FAE9CF2EABE3DA2EE12CF12C00E010E0AF
:1001E0000E940222A52CB62CC72CD82CE92CFA8808
:1001F0000989142D0E947D210FE10E94BB222983D1
:100200003A834B835C836D837E838F8398872981B8
:100210003A814B815C81550F220B322FA90129872E
:100220003A874B875C87252D362D472D582D692D14
:100230007F2D8989942DA980BA80CB80DC80E984C8
:10024000FE2C0E2D1E2D0E94D62229833987498B24
:100250005A8B6B8B7C8B1C016D847D88898C9A8C6E
:100260003C8D3D8B4F8C5BA09301A4016B8D7D89F0
:10027000C201211534404B46544F6441710581053C
:10028000910569F060F0612C24E0722E3BE6832E2C
:1002900044EF942EB4E1BB8F1D8A412C512CEB8D81
:1002A000EF8F9301A4016E2F7D89C201211538457E
:1002B0004744584F6D4071058105910560F4612CEC
:1002C00008E5702E87E4882E98EF992E2DE02F8F69
:1002D0001D8A412C512CA980B984C988DA88EB8801
:1002E000FC8881019301A4016F8D7D89C2010E9468
:1002F0003322298F3A8F4B8F5C8F2D873E874F8714
:10030000588B8D859E85AF85B8891FE0A12E0F97EC
:10031000A105B10558F02D853E854F8558892B35AF
:10032000310541055105B8F0BAE5AB2EB12CC12C11
:10033000D12CE12CF12C00E010E02981398549898C
:100340005A896B897C89C1010E947D2139014A014A
:100350006F8F7D8B2C01A980B984C988DA88EB88DE
:10036000FC8881019301A4016F8D7D89C2010E94E7
:100370003122E0E4AE2EF2E4BF2EAFE0CA2ED12C43
:10038000E12CF12C00E010E00E947D21A980B984CD
:10039000C988DA88EB88FC8881010E9433224901F0
:1003A0004CA35BA3C901DA0121E030E040E050E05A
:1003B0000097A105B10521F020E432E44FE050E0C0
:1003C0002D8B3E8B4F8B588FBC01CD0127E0660FE4
:1003D000771F881F991F2A95D1F72D893E894F894C
:1003E000588D0E943C2129013A016F8F78A389A37F
:1003F0009AA3A980B984C988DA88EB88FC8881012E
:1004000094014CA15BA160E070E080E090E00E946C
:100410007D212BA33CA34DA35EA36FA378A789A73F
:100420009AA78D859E85AF85B88937E0880F991F7B
:10043000AA1FBB1F3A95D1F79250A109B109840DAB
:10044000951DA61DB71DED8DFE8D80839183A28322
:10045000B3832F8D38A149A15AA1248335834683C4
:1004600057832D893E894F89588D20873187428750
:100470005387298D3A8D4B8D5C8D60E070E080E074
:1004800090E00E947D2129013A014B0189879983DF
:100490008D899E89AF89B88D5C016D01E12CF12CAD
:1004A00000E010E02BA13CA14DA15EA16FA178A5B9
:1004B00089A59AA50E94332259016A017B018C010A
:1004C0009201A301B401898599810E94D622AA963E
:1004D0000FB6F894DEBF0FBECDBFDF91CF911F9155
:1004E0000F91FF90EF90DF90CF90BF90AF909F90D3
:1004F0008F907F906F905F904F903F902F900895D6
:100500002F923F924F925F926F927F928F929F9223
:10051000AF92BF92CF92DF92EF92FF920F931F9311
:10052000CF93DF93CDB7DEB76C970FB6F894DEBFED
:100530000FBECDBF322E3D87242E5E872B013C019E
:10054000A982BF86C88AD98AEA8AFB8A0C8B1D8B4E
:10055000988E8F8A211501EC30070AE140070DE3E0
:10056000500705E0600771058105910509F0A0F5C8
:100570002F3710EF31071AEF410712E051076105DD
:1005800071058105910509F008F4B4C12F3F354D7F
:1005900041415E47634071058105910509F008F40A
:1005A0008FC029813F85488959896A897B898C89CF
:1005B0009D89A0E0992493940E94EB2209F08EC0BB
:1005C00011E01E8B94E0892E912CA12CB12C8986F0
:1005D0009A86AB86BC862FC0312CB1ECBD872AE150
:1005E000222EEDE3EE8735E0432E512C612C712C49
:1005F000D8CFA32CBD84C22CDE847201830120E0FD
:1006000034E04BE654EF64E170E080E090E00E945B
:100610003322122FB32FF42FE52FA7E00E94EB22F5
:1006200021F416E0B0E0F0E0E0E0CF011987BA87EE
:100630009B87EC871E8A89849A84AB84BC84A5013D
:10064000940160E070E0CB01A32CBD84C22CDE8459
:100650007201830129833A834B835C836D837E839C
:100660008F83988760E070E080E090E00E947D21B9
:1006700029833F87488B598B6A8B7B8B8C8B9D8B17
:100680000E89C12CD12C7601C39440E050E0BA0110
:10069000013009F0A9C0AF89B88D1D921D921D923D
:1006A0001C921397FD01148215821682178281E035
:1006B00090E0A0E0B0E080879187A287B387DEC09A
:1006C00029813F85488959896A897B898C899D89D7
:1006D000A0E00E94EB2209F48CCF912CA32CBD84C6
:1006E000C22CDE847201830129813F8548895989A2
:1006F0006A897B898C899D890E94332229873A8760
:100700004B875C8729853A854B855C8506E0A02E62
:10071000B12C263031054105510568F089859A854F
:10072000AB85BC8589309740A105B105D0F0B8E014
:10073000AB2E17E0B12EC12CD12CE12CF12C00E016
:1007400010E029813F85488959896A897B898C898C
:100750009D890E943322322E3D87242E5E872B01F5
:100760003C01A32CBD84C22CDE847201830129814B
:100770003F85488959896A897B898C899D890E942E
:100780003122E0E4AE2EF2E4BF2EAFE0CA2ED12C2F
:10079000E12CF12C00E010E00E947D21A32CBD840F
:1007A000C22CDE84720183010E943322A32FF42F16
:1007B000E52F422F5A2F6F2F7E2FA0E4CA2EA2E4DE
:1007C000DA2EAFE0EA2EF12C4115510561057105D5
:1007D00021F4C12CD12C7601C394AA24A3949A1499
:1007E00009F46DC001E00E8BCB01BA0117E0660F72
:1007F000771F881F991F1A95D1F7A70196010E94AC
:100800003C21298F3A8F4B8F5C8F89849A84AB84EB
:10081000BC8407E0880C991CAA1CBB1C0A95D1F764
:100820009501840112502109310948015901298D8E
:100830003A8D4B8D5C8D280D391D4A1D5B1DAF898E
:10084000B88D2D933D934D935C931397FD01648375
:100850007583868397831896CD92DD92ED92FC92F4
:100860001B978E88882051F039829D849F86288A24
:10087000AE84A98A4A8A5B8A6C8A7D8A29813F85EF
:10088000488959896A897B898C899D896C960FB6BC
:10089000F894DEBF0FBECDBFDF91CF911F910F91B6
:1008A000FF90EF90DF90CF90BF90AF909F908F9090
:1008B0007F906F905F904F903F902F900895AF89F9
:1008C000B88D1D921D921D921C921397FD011482EA
:1008D00015821682178281E090E0A0E0B0E0808768
:1008E0009187A287B3873982FD85FF87288A8E8406
:1008F000898AC0CF29813F85488959896A897B893E
:100900008C899D89A0E0E0E83E2EF0EFFD87FAEFAC
:100910002F2E02E00E87412C512C612C712C0E944D
:10092000EB2209F0DACE18E0B7E07DCEDF92EF924D
:10093000FF920F931F93CF93DF93FC01E080F18030
:1009400002811381D481C581B681D7809701A80126
:100950006D2F7C2F8B2F9D2D20583A4146405109F9
:1009600061097109810991092F373A4146405105C2
:10097000610571058105910509F0D0F49701A80181
:100980006D2F7C2F8B2F9D2D07E00E94A0222083AE
:10099000318342835383648375838683978387E09F
:1009A000DF91CF911F910F91FF90EF90DF9008950D
:1009B0009701A8016D2F7C2F8B2F9D2D35534C4017
:1009C000510961097109810991092F3F34434C4054
:1009D0005105610571058105910509F098F49701AC
:1009E000A8016D2F7C2F8B2F9D2D06E00E94A02249
:1009F0002083318342835383648375838683978303
:100A000086E0CECF9701A8016D2F7C2F8B2F9D2DD7
:100A10003A564841510961097109810991092F3FED
:100A2000394648415105610571058105910509F077
:100A300098F49701A8016D2F7C2F8B2F9D2D05E039
:100A40000E94A02220833183428353836483758371
:100A50008683978385E0A4CF9701A8016D2F7C2F13
:100A60008B2F9D2D345D4043510961097109810926
:100A700091092F3F334D40435105610571058105B3
:100A8000910509F098F49701A8016D2F7C2F8B2F09
:100A90009D2D04E00E94A022208331834283538352
:100AA000648375838683978384E07ACF9701A80156
:100AB0006D2F7C2F8B2F9D2D385A4146510961098E
:100AC0007109810991092F3F374A41465105610556
:100AD00071058105910509F098F49701A8016D2F22
:100AE0007C2F8B2F9D2D03E00E94A0222083318339
:100AF00042835383648375838683978383E050CFD7
:100B00009701A8016D2F7C2F8B2F9D2D3055434CC5
:100B1000510961097109810991092F3F3F44434CF3
:100B20005105610571058105910509F098F497015A
:100B3000A8016D2F7C2F8B2F9D2D02E00E94A022FB
:100B400020833183428353836483758386839783B1
:100B500082E026CF9701A8016D2F7C2F8B2F9D2D32
:100B6000305A4648514061097109810991092F3F66
:100B70003F4946485140610571058105910509F0DD
:100B800098F49701A8016D2F7C2F8B2F9D2D01E0EC
:100B90000E94A02220833183428353836483758320
:100BA0008683978381E0FCCE80E0FACE2F923F923D
:100BB0004F925F926F927F928F929F92AF92BF926D
:100BC000CF92DF92EF92FF920F931F93CF93DF9319
:100BD000CDB7DEB765970FB6F894DEBF0FBECDBFB9
:100BE0002D833E834F83588769877A878B879C87BD
:100BF000A982BF86C88AD98AEA8AFB8A0C8B1D8B98
:100C00009E868D86211506ED300701E140070EE72F
:100C1000500703E0600771058105910511F008F0A8
:100C200009C12F37304F4A4F524061057105810588
:100C3000910509F008F469C19501A601B7018C89F5
:100C40009D89A0E00E94EB2209F00DC1AD80BE801D
:100C5000CF80D884E984FA840B851C8520E033E2B8
:100C600045E75EEE64E170E080E090E00E943322B0
:100C7000C901DA01A901BD0120FF99C04F5F5F4F93
:100C80006F4F7F4F49835A836B837C834F3F51055E
:100C90006105710540F08EEF90E0A0E0B0E089833F
:100CA0009A83AB83BC83E980FA800B811C81A80105
:100CB0009701AD80BE80CF80D884E984FA840B850B
:100CC0001C8560E070E080E090E00E947D212901B9
:100CD0003A014B011C01211504E030070BE64007E7
:100CE00004EF500704E1600771058105910509F0E3
:100CF00008F47DC089819A81AB81BC810297A109EA
:100D0000B10989839A83AB83BC831C012D010B85B8
:100D10009101A20160E070E080E090E00E947D21FE
:100D200029013A014B011C0189819A81AB81BC8167
:100D30009927AA27BB27ED85FE8580839183A2830F
:100D4000B38314821582168217821086118612864A
:100D500013869201A301B401C10165960FB6F89400
:100D6000DEBF0FBECDBFDF91CF911F910F91FF90DE
:100D7000EF90DF90CF90BF90AF909F908F907F903B
:100D80006F905F904F903F902F90089545E050E016
:100D900060E070E01D8286ED8E8391E19F83AEE777
:100DA000A887B3E0B9871A861B861C8667CF05978C
:100DB000A105B10509F066CF16E0E12EF12C00E0A7
:100DC00010E0E982FA820B831C836DCF46E057E086
:100DD00060E070E0E0E8ED83F0EFFE830AEF0F8360
:100DE00012E0188719861A861B861C864BCF2F3F68
:100DF00037454744584F6D4071058105910511F005
:100E000008F092CF89819A81AB81BC810296A11DA5
:100E1000B11D89839A83AB83BC831C012D01AD80F6
:100E2000BE80CF80D884E984FA840B851C8570CF7E
:100E3000412C63C029813F85488959896A897B890A
:100E40008C899D89A0E00E94EB2209F49FCF1D822E
:100E5000B6EDBE83E1E1EF83FEE7F88703E00987A3
:100E60001A861B861C86AD80BE80CF80D884E9841C
:100E7000FA840B851C8529813F85488959896A89AF
:100E80007B898C899D890E94312229013A014B017D
:100E90001C01A0E00E94EB2259F629813F85488978
:100EA00059896A897B898C899D890E943322022F06
:100EB000132F242F352FD901C8010697A109B10995
:100EC000893F9105A105B10508F043CF10E030E05E
:100ED00020E0AD85BE850D931D932D933C93139714
:100EE000FD01148215821682178218961D921D929A
:100EF0001D921C921B9744244394512C612C712CFD
:100F0000812C912C212C312C24CF29813F8548899B
:100F100059896A897B898C899D89A0E00E94EB228E
:100F200009F454CF10E81D8380EF8E839AEF9F83DE
:100F3000A2E0A887198694CFDF92EF92FF920F93D9
:100F40001F93CF93DF93FC01E080F1800281138136
:100F5000D481C581B681D7809701A8016D2F7C2FE0
:100F60008B2F9D2D285938424C4151096109710937
:100F700081099109273938424C41510561057105B4
:100F80008105910509F0D0F49701A8016D2F7C2F00
:100F90008B2F9D2D07E00E94A02220833183428366
:100FA0005383648375838683978387E0DF91CF9132
:100FB0001F910F91FF90EF90DF9008959701A80186
:100FC0006D2F7C2F8B2F9D2D205331454843510988
:100FD00061097109810991092F3231454843510551
:100FE000610571058105910509F098F49701A80143
:100FF0006D2F7C2F8B2F9D2D06E00E94A022208339
:10100000318342835383648375838683978386E029
:10101000CDCF9701A8016D2F7C2F8B2F9D2D2056B2
:10102000324A4047510961097109810991092F35F7
:10103000324A40475105610571058105910509F066
:1010400098F49701A8016D2F7C2F8B2F9D2D05E023
:101050000E94A0222083318342835383648375835B
:101060008683978385E0A2CF9701A8016D2F7C2FFF
:101070008B2F9D2D205C3444414E5109610971092B
:10108000810991092F3B3444414E51056105710599
:101090008105910509F098F49701A8016D2F7C2F27
:1010A0008B2F9D2D04E00E94A02220833183428358
:1010B0005383648375838683978384E077CF970116
:1010C000A8016D2F7C2F8B2F9D2D20583948424C25
:1010D000514061097109810991092F373948424C02
:1010E0005140610571058105910509F098F497015A
:1010F000A8016D2F7C2F8B2F9D2D03E00E94A02235
:1011000020833183428353836483758386839783EB
:1011100083E04CCF9701A8016D2F7C2F8B2F9D2D45
:1011200033514548534061097109810991092F3FA5
:10113000324145485340610571058105910509F02B
:1011400098F49701A8016D2F7C2F8B2F9D2D02E025
:101150000E94A0222083318342835383648375835A
:101160008683978382E022CF9701A8016D2F7C2F81
:101170008B2F9D2D36524A405740610971098109D4
:1011800091092F3F35424A4057406105710581055D
:10119000910509F098F49701A8016D2F7C2F8B2FF2
:1011A0009D2D01E00E94A02220833183428353833E
:1011B000648375838683978381E0F8CE80E0F6CEE2
:1011C000089508950895AF92BF92CF92DF92EF9263
:1011D000FF920F931F93CF93DF936C017B018B01E1
:1011E000040F151FEB015E01AE18BF08C017D10731
:1011F00059F06991D601ED91FC910190F081E02DBB
:10120000C6010995892B79F7C501DF91CF911F910F
:101210000F91FF90EF90DF90CF90BF90AF90089527
:10122000FC01538D448D252F30E0842F90E0821BEC
:10123000930B541710F0CF96089501970895FC0171
:10124000918D828D981761F0A28DAE0FBF2FB11DC9
:101250005D968C91928D9F5F9F73928F90E0089521
:101260008FEF9FEF08952FB7F8948091D701909159
:10127000D801A091D901B091DA012FBF8093550216
:1012800090935602A0935702B09358028DE492E0D7
:101290000E941F0997FF26C02FB7F8948091D701AD
:1012A0009091D801A091D901B091DA012FBF40915E
:1012B0005502509156026091570270915802841B5A
:1012C000950BA60BB70B40915102509152026091C1
:1012D00053027091540284179507A607B707B0F21E
:1012E0008FEF9FEF0895FC01918D828D981731F05B
:1012F000828DE80FF11D858D90E008958FEF9FEFAF
:101300000895FC01918D228D892F90E0805C9F4F84
:10131000821B91098F73992708958DE492E00E94B2
:10132000810921E0892B09F420E0822F089580E0D3
:1013300090E0892B29F00E948D0981110C94000006
:101340000895FC01A48DA80FB92FB11DA35ABF4F5A
:101350002C91848D90E001968F739927848FA689B4
:10136000B7892C93A089B1898C91837080648C9308
:10137000938D848D981306C00288F389E02D8081B7
:101380008F7D80830895EF92FF920F931F93CF93E9
:10139000DF93EC0181E0888F9B8D8C8D98131AC0B0
:1013A000E889F989808185FF15C09FB7F894EE8997
:1013B000FF896083E889F9898081837080648083F4
:1013C0009FBF81E090E0DF91CF911F910F91FF903F
:1013D000EF900895F62E0B8D10E00F5F1F4F0F73E7
:1013E0001127E02E8C8D8E110CC00FB607FCFACFA2
:1013F000E889F989808185FFF5CFCE010E94A10996
:10140000F1CFEB8DEC0FFD2FF11DE35AFF4FF08272
:101410009FB7F8940B8FEA89FB8980818062CFCFD8
:10142000CF93DF93EC01888D8823B9F0AA89BB891B
:10143000E889F9898C9185FD03C0808186FD0DC006
:101440000FB607FCF7CF8C9185FFF2CF808185FF27
:10145000EDCFCE010E94A109E9CFDF91CF91089590
:1014600090E0FC01EC55FF4F2491FC01E057FF4F49
:101470003491FC01E458FF4FE491EE23C9F022239C
:1014800039F0233001F1A8F4213019F1223029F18B
:10149000F0E0EE0FFF1FEE58FF4FA591B4918FB70C
:1014A000F894EC91611126C030953E233C938FBF98
:1014B00008952730A9F02830C9F0243049F78091E9
:1014C00080008F7D03C0809180008F7780938000A3
:1014D000DFCF84B58F7784BDDBCF84B58F7DFBCF25
:1014E0008091B0008F778093B000D2CF8091B00010
:1014F0008F7DF9CF3E2BDACFCF93DF9390E0FC01C5
:10150000E057FF4F249184589F4FFC01849188231A
:10151000D1F090E0880F991FFC01E859FF4FA59189
:10152000B491FC01EE58FF4FC591D49161110EC0EA
:101530009FB7F8948C91E22FE0958E238C932881AD
:10154000E223E8839FBFDF91CF9108958FB7F8948E
:10155000EC91E22BEC938FBFF6CF3FB7F8948091DC
:10156000C7019091C801A091C901B091CA0126B5E7
:10157000A89B05C02F3F19F00196A11DB11D3FBFCB
:10158000BA2FA92F982F8827BC01CD01620F711D9A
:10159000811D911D42E0660F771F881F991F4A9594
:1015A000D1F708958F929F92AF92BF92CF92DF9220
:1015B000EF92FF924B015C010E94AD0A6B017C012E
:1015C0000E94AD0A6C197D098E099F09683E73401F
:1015D00081059105A8F321E0821A9108A108B108BC
:1015E00088EEC80E83E0D81EE11CF11C8114910422
:1015F000A104B10429F7FF90EF90DF90CF90BF9046
:10160000AF909F908F9008952091A301260F3327CC
:10161000331F21323105ECF420912302FC0190E0CC
:1016200080E0243069F082E00895A091A301219127
:10163000AC014D575E4FA40FB52FB11D2C930196F1
:10164000861798F38091A301680F6093A30180E04F
:10165000089581E008951092230281E08093220290
:101660001092FD0161E082E10E94300A61E083E1B5
:101670000E94300AE9EBF0E080818E7F80838081D8
:101680008D7F808388E48093B80085E48093BC00DC
:101690000895CF93DF9391E0909382018823B9F06E
:1016A000C091B800D091BA008091BC008A7B809331
:1016B000BC0060E082E10E94300A60E083E10E94A9
:1016C000300A0E942B0BD093BA00C093B800DF9170
:1016D000CF9108958F929F92AF92BF92CF92DF9257
:1016E000EF92FF920F931F93CF93DF93D0914C0211
:1016F000D13208F0D7C0182FC0914B020E94AD0A1A
:101700006B017C018091230281116BC082E0809388
:101710002302109322028FEF809321021092200265
:10172000D0931F02ABE2B2E0EFEFF1E080E0D8131C
:1017300091C01092FE018091FE01CC0FC82BC09386
:10174000FE018091FD01813009F088C01092FD01F9
:101750000E94AD0A6B017C018091FE018093BB0069
:101760008091250290912602A0912702B091280233
:10177000892B8A2B8B2BA1F00E94AD0A00912502A8
:101780001091260220912702309128026C197D09C0
:101790008E099F09061717072807390708F442C062
:1017A0008091BC0083FDD8CF85EC8093BC000E9463
:1017B000AD0A6B017C0180912302823009F450C094
:1017C000809121028F3F09F46FC080912102803205
:1017D00009F46CC080912102803309F469C084E06F
:1017E00026C08091250290912602A0912702B091F7
:1017F0002802892B8A2B8B2B09F484CF0E94AD0AF7
:101800008090250290902602A0902702B090280296
:101810006C197D098E099F0986169706A806B906D8
:1018200008F070CF809124020E94490B85E010924D
:101830002A0210924C0210922902DF91CF911F913F
:101840000F91FF90EF90DF90CF90BF90AF909F905F
:101850008F9008959D9191938F5F69CF85EEA5CF6D
:101860008091250290912602A0912702B091280232
:10187000892B8A2B8B2B09F49ECF0E94AD0A0091F5
:1018800025021091260220912702309128026C191E
:101890007D098E099F09061717072807390708F0E1
:1018A0008ACFC0CF81E0C3CF80E0C1CF82E0BFCF7D
:1018B00083E0BDCF0895E091DC018091DB01E81762
:1018C00030F4F0E0E352FE4F808190E008958FEF16
:1018D0009FEF08959091DC018091DB012FEF3FEFA6
:1018E000981748F4E92FF0E0E352FE4F208130E0F2
:1018F0009F5F9093DC01C9010895CF92DF92EF9230
:10190000FF920F931F93CF93DF937C01CB018A014A
:1019100020912902222389F0EB016B01C40ED51E10
:10192000CC15DD0569F06991D701ED91FC9101902D
:10193000F081E02DC7010995F3CF642F0E94040BBD
:10194000C801DF91CF911F910F91FF90EF90DF9031
:10195000CF900895CF93DF931F92CDB7DEB7698301
:10196000209129022223F9F020914C02203258F0D4
:1019700021E030E0FC013383228390E080E00F908F
:10198000DF91CF91089580912A02E82FF0E0E55D84
:10199000FD4F998190838F5F80932A0280934C0240
:1019A00081E090E0ECCF61E0CE0101960E94040B53
:1019B000F7CFCF93C62F9091740321E02093290293
:1019C00090934B0210922A0210924C02682F8AEEDA
:1019D00092E00E94AA0C6C2F8AEE92E00E94AA0C60
:1019E00081E0CF910C946A0BEF92FF920F931F93BB
:1019F000CF93DF93062F7A019091740321E0209317
:101A0000290290934B0210922A0210924C02682FE6
:101A10008AEE92E00E94AA0CE70110E0CE018E1936
:101A20009F098017910734F469918AEE92E00E9431
:101A3000AA0CF4CF81E0DF91CF911F910F91FF901D
:101A4000EF900C946A0B90E080E00895CF92DF92C3
:101A5000EF92FF920F931F93CF939091740321E025
:101A60002093290290934B0210922A0210924C026A
:101A7000682F8AEE92E00E94AA0C81E00E946A0B15
:101A8000C09174030E94AD0A6B017C018091230216
:101A9000811165C081E080932302109222029FEFA2
:101AA000909321021092200210921F028093FE0157
:101AB0008091FE01CC0FC82BC093FE018091FD01E7
:101AC000813009F080C01092FD010E94AD0A6B01C7
:101AD0007C018091FE018093BB0080912502909152
:101AE0002602A0912702B0912802892B8A2B8B2BEA
:101AF000A1F00E94AD0A00912502109126022091CA
:101B00002702309128026C197D098E099F0906175A
:101B100017072807390708F443C08091BC0083FDEC
:101B2000D8CF85EC8093BC000E94AD0A6B017C018C
:101B300080912302813009F448C080912002C1E0E5
:101B4000811102C0C0912002EFEFF1E0ADEDB1E0F4
:101B500080E08C1751F191919D938F5FFACF809126
:101B6000250290912602A0912702B0912802892B8C
:101B70008A2B8B2B09F48ACF0E94AD0A0091250293
:101B80001091260220912702309128026C197D09BC
:101B90008E099F09061717072807390708F076CF1F
:101BA000809124020E94490BC0E01092DC01C09396
:101BB000DB0180E09091DC01C91749F18AEE92E0E7
:101BC0000E946A0CF7CF85EEADCF809125029091EF
:101BD0002602A0912702B0912802892B8A2B8B2BF9
:101BE00009F4A6CF0E94AD0A0091250210912602A9
:101BF00020912702309128026C197D098E099F09D6
:101C0000061717072807390708F092CFC9CFCF91D9
:101C10001F910F91FF90EF90DF90CF900895CF9399
:101C2000DF93D82FC62F83E00E94260D61E070E07D
:101C300001C0660FDA95EAF7C13039F46095682380
:101C400083E0DF91CF910C94D90C682BF9CFFF92F0
:101C50000F931F93CF93DF93EC018B01F82E80E15C
:101C6000F80E8F2D0E94260D682F0115110581F4A5
:101C70006F7D8F2D0E94D90CCC0FDD1FCA50DD4F18
:101C80001A870987DF91CF911F910F91FF900895D7
:101C90006062EFCF1F93CF93DF93C62F142F865F21
:101CA0009E4FFC01D0818D2F0E94260D837811114B
:101CB0008C60F0E1CF9FB0011124682B8D2FDF9154
:101CC000CF911F910C94D90CCF93DF93D62FC0E105
:101CD000C80F8C2F0E94260D682FD13031F460641C
:101CE0008C2FDF91CF910C94D90C6F7BF9CF2F9271
:101CF0003F924F925F926F927F928F929F92AF929C
:101D0000BF92CF92DF92EF92FF920F931F93CF93E8
:101D1000DF93CDB7DEB72D970FB6F894DEBF0FBEB9
:101D2000CDBF3C01C982DA82EB82FC820D831E8327
:101D30002F83388749875A876B877C87BAA03C2CCA
:101D40002D2C5E2C0D87412E922EC984DA84EB84D3
:101D5000FC8484E190E00E94FD228C01FC01D08291
:101D6000C182862D880F880F880F845D0E94260D02
:101D7000F52DF3705F2E8C7F582AF8015282238252
:101D800034828CE0F694E794D794C7948A95D1F77F
:101D9000FC2DF07FCF2E892D8F70C82AF801C582C7
:101DA00046828D85878393E06916710409F46CC0BF
:101DB000A8F5F1E06F16710409F448C082E06816D6
:101DC000710409F452C0A80168E08AE20E94F40C90
:101DD0006A2D90E080E00E94640E4B2D682D90E00B
:101DE00080E00E944A0EC8012D960FB6F894DEBF1F
:101DF0000FBECDBFDF91CF911F910F91FF90EF905C
:101E0000DF90CF90BF90AF909F908F907F906F901A
:101E10005F904F903F902F900C94992394E0691617
:101E2000710409F440C0E5E06E16710461F6A80182
:101E300068E082E50E94F40C6A2D85E090E00E9443
:101E4000640E4B2D682D85E090E0CBCFA80168E0B3
:101E500082E30E94F40C6A2D81E090E00E94640EFF
:101E60004B2D682D81E090E0BCCFA80168E08AE3AB
:101E70000E94F40C6A2D82E090E00E94640E4B2DCB
:101E8000682D82E090E0ADCFA80168E082E40E9476
:101E9000F40C6A2D83E090E00E94640E4B2D682DB7
:101EA00083E090E09ECFA80168E08AE40E94F40CF1
:101EB0006A2D84E090E00E94640E4B2D682D84E032
:101EC00090E08FCF2F923F924F925F926F927F92CE
:101ED0008F929F92AF92BF92CF92DF92EF92FF923A
:101EE0000F931F93CF93DF93CDB7DEB72E970FB627
:101EF000F894DEBF0FBECDBF19013A014B018D87AB
:101F00009E872801012B09F073C0E0915F03F091D7
:101F10006003EE0FFF1FEE0FFF1FE559FC4FA0807F
:101F2000B180C280D380CE0101967C0189019301EA
:101F3000AB016D857E8590E080E00E948F0084E19A
:101F400090E00E94FD228C0189859A85AB85BC8535
:101F5000F8019083818339814A812B812370228308
:101F6000438334832CE0B695A795979587952A955A
:101F7000D1F7807F2D813E819F819F70892B858342
:101F8000368327834114510409F04BC0A80168E04F
:101F90008AE10E94F40C20924F0330925003609229
:101FA0005103709252038092530390925403FD8523
:101FB000F09355038E8580935603C8012E960FB675
:101FC000F894DEBF0FBECDBFDF91CF911F910F916F
:101FD000FF90EF90DF90CF90BF90AF909F908F9049
:101FE0007F906F905F904F903F902F900C9499232B
:101FF000E0916103F0916203EE0FFF1FEE0FFF1FF0
:10200000E559FC4FA080B180C280D380FE0131969B
:102010007F0181019A01AB016D857E8581E090E0B1
:102020008CCF4A94452849F6A80168E082E20E94D4
:10203000F40C209257033092580360925903709227
:102040005A0380925B0390925C03ED85E0935D03FD
:10205000FE85F0935E03B1CF0F931F9360936B03E4
:1020600070936C0380936D0390936E03EFE4F3E041
:1020700020813181428153816481758110E000E0CB
:10208000868197810E94620FE7E5F3E0208131812C
:10209000428153816481758101E010E086819781DE
:1020A0000E94620F1F910F9108952F923F924F92BD
:1020B0005F926F927F928F929F92AF92BF92CF92D8
:1020C000DF92EF92FF920F931F93CF93DF93CDB7E1
:1020D000DEB7E5970FB6F894DEBF0FBECDBFE22E98
:1020E00029A3F32E3AA34BA35CA36DA37EA38FA3D6
:1020F00098A7702E612E9701AFEF0E94DF222E3736
:102100003A4146405105610571058105910509F087
:1021100058F480E889A38AE18AA386E08BA31CA2F5
:102120001DA21EA21FA218A629A13AA14BA15CA123
:102130006DA17EA18FA198A52115314C4A415D4327
:10214000654071058105910569F060F019A281EC87
:102150008AA38AE18BA38DE38CA385E08DA31EA2C5
:102160001FA218A6D9A04AA05BA0ACA0EDA0FEA01B
:102170000FA118A5272C362C2D2D342D452D5A2D89
:10218000B701C8012115344E4B40544562407105DA
:102190008105910509F008F425C1AFE04A2EA3E0BE
:1021A0005A2E26EF32E03AA729A78901F201D12C55
:1021B000C101880F991FDC01A150BD4F7D01208115
:1021C00031814281538164817581868197813896FE
:1021D0002115344E4B4054456240710581059105EF
:1021E00071F068F0D71459F0D80119962D913C91EF
:1021F000D7018D919C912817390709F46AC1D394AE
:102200000E5F1F4FB6E0DB12DACF81010B581C4F77
:10221000F8018081811108C061E0872D962D0E9410
:102220000F0E81E0D8018C9329A13AA14BA15CA1AA
:102230006DA17EA18FA198A5D101E3E0AA0FBB1FDC
:10224000EA95E1F7AA50BD4FFD01799659962C9376
:102250003183428353836483758386839783FE012E
:102260003D964F01A12CB12CC12CD12CE12CF12C8D
:1022700000E010E00E9480022BA73CA74DA75EA7BC
:102280006FA778AB89AB9AABC101880F991F9C01EE
:102290002A503D4F7901D90119960D911C912BA51A
:1022A0003CA589A99AA90E94620F712C612CF701A3
:1022B0003996FDABECABD201AC901196EC90119736
:1022C0001296FC90129713960C91139714961C91EA
:1022D00014971596BC91F201D680C780F8E04F0E96
:1022E000511C2A2D3E2D4F2D502F612F7B2F8D2DD0
:1022F0009C2DA0E00E94EB2209F455C0E9A5FAA5A7
:1023000021853285ECA9FDA98081918128173907A3
:1023100009F049C0A98EEA8EFB8E0C8F1D8FBE8FEF
:10232000DF8EC8A2CE0149960E9496048BAB298D00
:102330003A8D4B8D5C8D6D8D7E8DCE0101964C015D
:10234000ABA4BCA4CDA4DEA4EFA4F8A809A91AA943
:102350008F8D98A10E948002AA24A394298D3A8D82
:102360004B8D5C8D6D8D7E8D8F8D98A12F3F354D62
:1023700041415E47634071058105910509F008F40C
:10238000A12CAF928BA8C980DA80EB80FC800D81F4
:102390001E812F81388549855A856B857C85C301CF
:1023A0000E94770E0F90BFEF6B1A7B0AE9A5FAA582
:1023B0003296FAA7E9A7F6E06F16710409F07BCF11
:1023C000F101EE0FFF1FEA50FD4F8185928560E21B
:1023D000009719F0019721F460E881EB0E94D90C75
:1023E00080E078C0D10193E0AA0FBB1F9A95E1F776
:1023F000AA50BD4FFD0179965996DC9241825282D6
:10240000A382E482F5820683178381010B581C4F57
:10241000D8018C91811108C061E0872D962D0E9412
:102420000F0E81E0F8018083CE0181960E94960410
:10243000582EF101EE0FFF1FEA50FD4F0184F28587
:10244000E02D29A13AA14BA15CA16DA17EA18FA194
:1024500098A5EF2B51F5A0904F03B0905003C0907A
:102460005103D0905203E0905303F0905403009135
:10247000550310915603DE011D964D010E94800206
:102480001F92852CA12CCD84DE84EF84F8880989E5
:102490001A892B893C894D895E896F89788D872DB2
:1024A000962D0E94770E0F909BCFA0905703B0906F
:1024B0005803C0905903D0905A03E0905B03F0900A
:1024C0005C0300915D0310915E03FE013D964F0198
:1024D000D5CF81E0E5960FB6F894DEBF0FBECDBF35
:1024E000DF91CF911F910F91FF90EF90DF90CF90F0
:1024F000BF90AF909F908F907F906F905F904F9024
:102500003F902F900895CF93DF93EC0188819981BC
:10251000009711F00E949923198218821D821C8253
:102520001B821A82DF91CF910895FC0180819181F5
:10253000009711F00C9499230895FC0124813581B2
:10254000232B39F421E0FB018081882349F020E02E
:1025500007C0808191810E94022521E0892BB9F773
:10256000822F08950F931F93CF93DF938C01EB017C
:10257000FC01808191810097E1F06881798161158A
:102580007105A9F0428153812C813D814217530787
:1025900070F00E940B258C819D81F80195838483C6
:1025A0001D821C82DF91CF911F910F9108950E948F
:1025B000992388819981F801918380838A819B8105
:1025C000938382838C819D81958384831982188271
:1025D0001B821A82E5CF0F931F93CF93DF93EC01F9
:1025E00088819981009759F02A813B812617370706
:1025F00030F081E0DF91CF911F910F9108958B0111
:102600006F5F7F4F0E942224009759F0998388833F
:102610001B830A832C813D81232B59F7FC011082F7
:10262000E8CF80E0E7CFEF92FF920F931F93CF9315
:10263000DF936115710541F480E0DF91CF911F9127
:102640000F91FF90EF90089541155105B1F07B0176
:10265000EC010C811D81040F151FB8010E94EB12C3
:10266000882351F3288139818C819D81B701820FA4
:10267000931F0E940B251D830C8381E0DECFCF9337
:10268000DF93EC01FB0101900020E9F73197AF01E6
:10269000461B570B0E941313811103C0CE010E94E9
:1026A0008312CE01DF91CF910895CF93DF93EC0198
:1026B000FB0144815581608171810E941313811156
:1026C00003C0CE010E948312CE01DF91CF91089505
:1026D000CF93DF9300D0CDB7DEB769831A8241E094
:1026E00050E0BE016F5F7F4F0E9413130F900F9059
:1026F000DF91CF910895EF92FF920F931F93CF93A5
:10270000DF93EC017B018A01BA010E94EB12811177
:102710000BC0CE010E948312CE01DF91CF911F9199
:102720000F91FF90EF9008951D830C83B70188816E
:1027300099810E940B25F0CFFB0101900020E9F761
:102740003197AF01461B570B0C947B130F931F93CC
:10275000CF93DF93CDB7DEB7A1970FB6F894DEBF66
:102760000FBECDBF8C01CB01BA01F80111821082DE
:1027700013821282158214822AE0AE014F5F5F4FEE
:102780000E949F20BE016F5F7F4FC8010E949C1373
:10279000A1960FB6F894DEBF0FBECDBFDF91CF91EB
:1027A0001F910F9108950F931F93CF93DF93CDB790
:1027B000DEB762970FB6F894DEBF0FBECDBF8C01B7
:1027C000CB01F801118210821382128215821482C9
:1027D0004AE0BE016F5F7F4F0E947F20BE016F5FA6
:1027E0007F4FC8010E949C1362960FB6F894DEBF1B
:1027F0000FBECDBFDF91CF911F910F910895CF9361
:10280000DF93EC01FB018617970749F06081718126
:102810006115710541F0448155810E947B13CE0101
:10282000DF91CF9108950E948312F9CFFC011182AC
:1028300010821382128215821482FB010190002003
:10284000E9F73197AF01461B570B0C947B13AF92FE
:10285000BF92CF92DF92EF92FF920F931F93CF938D
:10286000DF936C015B017A0189012417350720F49D
:102870008F2D7901042F182F67E371E0C6010E94A4
:102880001614D5011496CD91DC91EC16FD06E0F4FA
:102890000C171D0708F4E801D501ED91FC91119783
:1028A000EC0FFD1F108110826D917C916E0D7F1DCC
:1028B000C60161157105A1F00E949C13F50180818C
:1028C0009181C80FD91F1883C601DF91CF911F9145
:1028D0000F91FF90EF90DF90CF90BF90AF90089551
:1028E0000E948312EBCF85ED8093BC00809125027E
:1028F00090912602A0912702B09128020796A11D6F
:10290000B11D23E0B695A795979587952A95D1F7A0
:102910002091BC0024FD03C0109223020895409131
:102920002502509126026091270270912802452BC2
:10293000462B472B69F30097A105B10541F02AE228
:102940002A95F1F700C00197A109B109E1CF809163
:1029500024020C94490B2F923F924F925F926F92F8
:102960007F928F929F92AF92BF92CF92DF92EF921F
:10297000FF920F931F93CF93DF93CDB7DEB7AA9744
:102980000FB6F894DEBF0FBECDBF67E371E0CE0196
:1029900001960E9416140E94330997FD06C0682F05
:1029A000CE0101960E946813F6CFBE016F5F7F4F84
:1029B0008DEA93E00E94B212CE0101960E94951218
:1029C0000091AD031091AE030115110571F0F801EE
:1029D00081918F01882349F0082E000C990B0E94E9
:1029E000DF24F80131978083F2CF67E371E0CE01F5
:1029F00007960E94161466E371E0CE0101960E94CC
:102A00001614A090B103B090B203A114B10409F45C
:102A100067C08D809E808114910409F461C0EB84AD
:102A2000FC84E818F9080091AD031091AE03E1149D
:102A3000F104A1F469817A81C8010E9412258C01F8
:102A4000009709F44DC06F8178854B855C850E94A5
:102A5000E7248B859C85080F191FECCFF7FC0FC06E
:102A600069807A806501C801B3010E941225009730
:102A700009F467C0880D991DCE0CDF1CF5CF6801E5
:102A800069817A81C8010E9412255C01009721F1B9
:102A90004C01801A910AA401B801C6010E94E724E2
:102AA000C80CD91C6F8178854B855C85C6010E9456
:102AB000E7248B859C85C80ED91E0D811E810A0DC9
:102AC0001B1D8091B1039091B2038E0D9F1D9093B9
:102AD000B2038093B103D4CFB801C6010E940B2585
:102AE000CE0101960E949512CE0107960E94951282
:102AF00067E371E0CE0185960E941614F12CE12C5B
:102B000010E000E08091B1039091B203E816F9065D
:102B100008F0CDC0E091AD03F091AE03309709F01D
:102B200099C010928001E0E8F1E060816B3309F414
:102B300094C0CE0185960E946813FFEFEF1AFF0A3A
:102B4000E1CFAC14BD0461F28091AF039091B0036A
:102B50008C159D0588F4B6016F5F7F4FC8010E94F8
:102B60002224009709F4BCCF9093AE038093AD0369
:102B7000D092B003C092AF030091B1031091B203A1
:102B80000150110917FDACCF48016D807E806114A2
:102B9000710409F4A5CFA090B103B090B203A114C1
:102BA000B10409F49DCFA614B70408F499CF0A150F
:102BB0001B0520F04501F1E08F1A9108C090AD038C
:102BC000D090AE0329803A80C6010FEF1FEF260197
:102BD000480C591C4816590678F0B1010E9412257C
:102BE000009751F09C012C193D098216930608F4B8
:102BF000980101968901EECF17FD72CF600E711E0C
:102C0000C601860D971DA50146195709BC018E0DF9
:102C10009F1D0E94F0248091B1039091B2038E0D0C
:102C20009F1D9093B2038093B1032091AD03309127
:102C3000AE03820F931FFC0110828091AD0390912F
:102C4000AE036F8178854B855C85800F911F0E9454
:102C5000E72496CFEE0DFF1D68CF60E0CE0185968C
:102C60000115110591F40E946813BE016B5D7F4F41
:102C700087EA93E00E94FF1367E371E0CE01859637
:102C80000E949C1301E010E058CF0E946813BE011F
:102C90006B5D7F4F81EA93E00E94FF130F5F1F4F30
:102CA00067E371E0CE0185960E949C1346CF22E037
:102CB00030E050E040E067EA73E0CE0101960E9408
:102CC0002714BE016F5F7F4F8BE993E00E94B21221
:102CD000CE0101960E94951222E030E050E040E0E3
:102CE00061EA73E0CE0101960E942714BE016F5F76
:102CF0007F4F85E993E00E94B212CE0101960E94B7
:102D000095122091AB033091AC0342E050E067EAAA
:102D100073E0CE0101960E942714BE016F5F7F4FC2
:102D20008FE893E00E94B212CE0101960E949512A4
:102D30002091A5033091A60342E050E061EA73E0E0
:102D4000CE0101960E942714BE016F5F7F4F89E874
:102D500093E00E94B212CE0101960E94951268E3A0
:102D600071E08BE993E00E949D12882309F47AC0F8
:102D700067E371E08FE893E00E949D12811111C01A
:102D800080918F0390919003009709F467C00E948F
:102D90005820609300017093010180930201909389
:102DA0000301409100015091010160910201709175
:102DB0000301CE0149960E94A6136BE371E0CE0198
:102DC0000D960E94161440910001509101016091EE
:102DD000020170910301CE0107960E94A6138B8514
:102DE0009C852BE030E0281B390B50E040E0BE0111
:102DF000635F7F4FCE0143960E94271468E371E022
:102E0000CE0101960E941614BE016D5E7F4FCE0169
:102E100001960E945513BE01675E7F4F0E945513B5
:102E20006FE671E00E943F13BC0183E893E00E94CB
:102E3000FF13CE0101960E949512CE0143960E9487
:102E40009512CE0107960E949512CE010D960E9412
:102E50009512CE0149960E94951224C060E070E060
:102E6000CB0197CF67E471E08BE993E00E949D125C
:102E70006AE471E08111C4C16FE471E08BE993E011
:102E80000E949D12882309F479C062E571E083E80D
:102E900093E00E949C1361E08CE00E94300A81E084
:102EA000809381016FE571E085E993E00E949D12B6
:102EB000882331F062E671E08DE793E00E949C1375
:102EC0000230110509F0A1C14091810350918203A4
:102ED00060917D0370917E038DE492E00E94E3088F
:102EE00067E571E08BE993E00E949D12882309F465
:102EF00095C162E370E080E090E00E94D20A67E34F
:102F000071E0CE0101960E941614BE016F5F7F4FE3
:102F100083E893E00E94B212CE0101960E949512BE
:102F200067E371E0CE0101960E941614BE016F5F47
:102F30007F4F8DE793E00E94B212CE0101960E946E
:102F40009512CE0185960E949512AA960FB6F89416
:102F5000DEBF0FBECDBFDF91CF911F910F91FF90CC
:102F6000EF90DF90CF90BF90AF909F908F907F9029
:102F70006F905F904F903F902F90089567E571E0BC
:102F80008BE993E00E949D12882369F06AE571E065
:102F900083E893E00E949C1360E08CE00E94300A7A
:102FA000109281017FCF6FE571E08BE993E00E9481
:102FB0009D1262E671E0811123C169E671E08BE93F
:102FC00093E00E949D126CE671E0811119C161E7E6
:102FD00071E08BE993E00E949D12882309F405C1FA
:102FE0008091810162E070E0882309F49CC0CE01E9
:102FF0004F960E94D31340910001509101016091BE
:10300000020170910301CE0149960E94A6136BE361
:1030100071E0CE010D960E9416144091000150916E
:1030200001016091020170910301CE0107960E9497
:10303000A6138B859C852BE030E0281B390B50E0D4
:1030400040E0BE01635F7F4FCE0143960E9427148C
:1030500061E771E0CE0101960E941614BE016D5E1B
:103060007F4FCE0101960E945513BE01675E7F4FD0
:103070000E94551361E471E00E943F1364E771E020
:103080000E943F1362E471E00E943F1365E471E027
:103090000E943F1365E471E00E943F1365E471E014
:1030A0000E943F1364E471E00E943F1366E771E001
:1030B0000E943F13BE01615E7F4F0E94551365E47D
:1030C00071E00E943F1365E471E00E943F1365E4E4
:1030D00071E00E943F1365E471E00E943F1363E4D6
:1030E00071E00E943F136FE671E00E943F13BC0144
:1030F00083E893E00E94FF13CE0101960E9495128F
:10310000CE0143960E949512CE0107960E94951219
:10311000CE010D960E949512CE0149960E949512FD
:10312000CE014F9698CECE014F960E94D313409178
:103130000001509101016091020170910301CE01E3
:1031400049960E94A6136BE371E0CE010D960E9492
:10315000161440910001509101016091020170919B
:103160000301CE0107960E94A6138B859C852BE058
:1031700030E0281B390B50E040E0BE01635F7F4F19
:10318000CE0143960E94271461E771E0CE010196BB
:103190000E941614BE016D5E7F4FCE0101960E9403
:1031A0005513BE01675E7F4F0E94551361E471E0C5
:1031B0000E943F1364E771E00E943F1362E471E0F4
:1031C0000E943F1365E471E00E943F1365E471E0E3
:1031D0000E943F1365E471E00E943F1364E471E0D4
:1031E0000E943F1365E471E063CF68E771E08BE90B
:1031F00093E00E949D12882309F454CE6BE771E09E
:1032000083E893E00E949C134DCE40918703509138
:10321000880360918303709184035ECE6FE471E054
:103220008BE993E00E949C1380919B0390919C03F7
:10323000892B09F05ECE63CE1F920F920FB60F92CC
:1032400011242F933F934F935F936F937F938F93AB
:103250009F93AF93BF93EF93FF938DE492E00E940F
:10326000A109FF91EF91BF91AF919F918F917F91B4
:103270006F915F914F913F912F910F900FBE0F90E3
:103280001F9018951F920F920FB60F9211242F9333
:103290008F939F93EF93FF93E0915D02F0915E0215
:1032A0008081E0916302F091640282FD1BC09081F5
:1032B000809166028F5F8F7320916702821741F0C1
:1032C000E0916602F0E0E35BFD4F958F809366022C
:1032D000FF91EF919F918F912F910F900FBE0F90C3
:1032E0001F9018958081F4CF1F920F920FB60F9206
:1032F00011242F933F938F939F93AF93BF9380910C
:10330000D7019091D801A091D901B091DA01309103
:10331000C60123E0230F2D3758F50196A11DB11DDD
:103320002093C6018093D7019093D801A093D9012F
:10333000B093DA018091C7019091C801A091C901B1
:10334000B091CA010196A11DB11D8093C701909350
:10335000C801A093C901B093CA01BF91AF919F91D9
:103360008F913F912F910F900FBE0F901F90189546
:1033700026E8230F0296A11DB11DD2CF1F920F92F6
:103380000FB60F9211242F933F934F935F936F9338
:103390007F938F939F93AF93BF93EF93FF9380910E
:1033A000B900887F803609F44AC0F0F5883209F404
:1033B000A7C018F5803109F49BC0B8F4882309F43C
:1033C000F9C0883009F494C0FF91EF91BF91AF919B
:1033D0009F918F917F916F915F914F913F912F912D
:1033E0000F900FBE0F901F901895883109F488C078
:1033F000803251F78093210214C0803409F49DC0BB
:1034000040F48033B9F38833F9F68093210285ECD8
:10341000B0C0803509F485C0883509F496C0883479
:1034200099F60E947314D0CF883909F48CC038F50E
:10343000883729F050F4883611F0803729F683E078
:10344000809323021092C50157C0883809F47BC0CD
:10345000803919F0803809F0B7CF8091C5018032EA
:1034600008F071C0E091C50181E08E0F8093C50125
:103470008091BB00F0E0EB55FE4F80833DC0803B68
:1034800039F0E0F4803A09F479C0883A09F09CCF29
:1034900084E0809323021092A4011092A301E09192
:1034A000CB01F091CC0109958091A30181110FC04E
:1034B00081E08093A3011092830109C0803C09F44C
:1034C000A6CF883C09F4A3CF883B09F07DCFE091DB
:1034D000A40181E08E0F8093A401F0E0ED57FE4F30
:1034E00080818093BB009091A4018091A30129C0A9
:1034F0008091FE018093BB0085EC8093BC0064CF7B
:103500009091200280911F02981758F5E0912002B7
:1035100081E08E0F80932002F0E0E150FE4F808129
:10352000E9CFE091200281E08E0F8093200280910C
:10353000BB00F0E0E150FE4F80839091200280912B
:103540001F029817C8F285E8D8CFE091200281E0E9
:103550008E0F809320028091BB00F0E0E150FE4F7F
:1035600080838091220281115CCF81E08093FD01F4
:1035700084EA8093BC001092230226CF85EC8093CE
:10358000BC00109223028091C501803230F4E0919A
:10359000C501F0E0EB55FE4F10826091C50170E06F
:1035A000E091CD01F091CE0185EA91E0099510926C
:1035B000C5010ACF1092210234CFEDE4F2E013826C
:1035C000128288EE93E0A0E0B0E084839583A68326
:1035D000B78326E131E03183208325EC30E0358765
:1035E000248724EC30E03787268720EC30E0318BCD
:1035F000208B21EC30E0338B228B22EC30E0358BBA
:10360000248B26EC30E0378B268B118E128E138E96
:10361000148EEAEEF2E01382128284839583A683ED
:10362000B78388E291E09183808367E371E08DEA5C
:1036300093E00E94161467E371E087EA93E00E942A
:10364000161467E371E081EA93E00E94161467E3C1
:1036500071E08BE993E00E94161467E371E085E95D
:1036600093E00E94161467E371E08FE893E00E94F4
:10367000161467E371E089E893E00E94161467E38B
:1036800071E083E893E00E94161467E371E08DE730
:1036900093E00E941614E6EFF2E085E0DF011D9250
:1036A0008A95E9F7158216821782108680E6809344
:1036B000740380E498E7ADE7B1E0809363039093EF
:1036C0006403A0936503B0936603109260031092A5
:1036D0005F031092620310926103109273030895C6
:1036E000CF93DF93CDB7DEB76A970FB6F894DEBFFE
:1036F0000FBECDBF789484B5826084BD84B58160EF
:1037000084BD85B5826085BD85B5816085BD8091AC
:103710006E00816080936E00109281008091810024
:10372000826080938100809181008160809381001C
:10373000809180008160809380008091B1008460DE
:103740008093B1008091B00081608093B00080913F
:103750007A00846080937A0080917A0082608093FE
:103760007A0080917A00816080937A0080917A005B
:10377000806880937A001092C1001092DC01109250
:10378000DB0110922A0210924C020E942B0B80EE59
:1037900098E09093CC018093CB0181EE98E09093D8
:1037A000CE018093CD0161E08CE00E947C0A61E053
:1037B0008BE00E947C0A61E088E00E947C0A60E065
:1037C00087E00E947C0AB3E0EB2EF12C61E08BE0F5
:1037D0000E94300A68EC70E080E090E00E94D20A1B
:1037E00060E08BE00E94300A68EC70E080E090E0DE
:1037F0000E94D20A21E0E21AF10841F7E0915D024D
:10380000F0915E0282E08083E0915902F0915A02C9
:103810001082E0915B02F0915C028FEC8083109249
:103820006502E0916102F091620286E08083E0919E
:103830005F02F0916002808180618083E0915F028D
:10384000F0916002808188608083E0915F02F09156
:103850006002808180688083E0915F02F091600265
:1038600080818F7D808384E090E0A0E0B0E0809351
:10387000510290935202A0935302B09354020E94BB
:103880002B0B8091740391E09093290280934B025B
:1038900081E00E946A0B811109C180E00E94260D1F
:1038A00090E0880F892F881F990B0197B1F362E987
:1038B00087EB0E94D90C80E89AEBACE8B1E08093EA
:1038C000630390936403A0936503B093660360E081
:1038D00070E0CB010E942C1060E880E10E94D90CBE
:1038E00060E881E10E94D90C60E882E10E94D90C75
:1038F00060E883E10E94D90C60E884E10E94D90C61
:1039000060E885E10E94D90C60E886E10E94D90C4C
:1039100060E887E10E94D90C6CE080E10E94D90C3C
:103920006CE081E10E94D90C6CE082E10E94D90C2C
:103930006CE083E10E94D90C6CE084E10E94D90C18
:103940006CE085E10E94D90C6CE086E10E94D90C04
:103950006CE087E10E94D90C10E000E020E030E24A
:103960004FE550EA62E170E080E090E00E94620F73
:1039700001E010E020E030E24FE550EA62E170E063
:1039800080E090E00E94620F109200031092FF020C
:103990001092020310920103109204031092030389
:1039A0001092060310920503109208031092070369
:1039B00010920A031092090381E090E090930C03A7
:1039C00080930B0390930E0380930D0370E060E0EF
:1039D00090E080E00E94270E70E060E081E090E0DF
:1039E0000E94270E70E060E082E090E00E94270EC7
:1039F00070E060E083E090E00E94270E70E060E0FD
:103A000084E090E00E94270E70E060E085E090E0A6
:103A10000E94270E61E070E086E090E00E94270E91
:103A200061E070E087E090E00E94270E60E082EAAB
:103A30000E94D90C60E083EA0E94D90C60E084EA1D
:103A40000E94D90C60E281EB0E94D90C60E881EB06
:103A50000E94D90C0FE013E0F5E7AF2EF3E0BF2E84
:103A6000D8011C9211961C92119712961C921297D3
:103A700013961C92139714961C92149715961C92E9
:103A8000159716961C92169717961C92085F1F4F53
:103A900060E0C7010E940F0EF50111925F01FFEF78
:103AA000EF1AFF0A28E0E216F104D1F660E070E0B8
:103AB000CB010E942C1010E000E020E030E24FE546
:103AC00050EA62E170E080E090E00E94620F80E1E5
:103AD0000E94260D682F636080E10E94D90C81E16D
:103AE0000E94260D682F636081E10E94D90C10921C
:103AF000800081E08093810081E88093810080B71D
:103B0000846080BF60E087E00E947C0A60E088E01B
:103B10000E94300A8DE492E00E948109181619066D
:103B200034F461E08BE00E94300A0E94AB14609193
:103B3000000170910101809102019091030120E444
:103B400032E44FE050E00E943C212093D3013093B7
:103B5000D4014093D5015093D6012B50310941092E
:103B600051092431310541055105E8F41E8A1D8AA9
:103B7000DD24D39410928500109284008AE090E0B6
:103B800000B605FE06C0B09BFBCF0197D6BA0097E2
:103B9000B9F700B605FC2DC1B09BFBCF0197D6BA93
:103BA00018161906B4F360E08CE00E94300A60E059
:103BB00090E080E00E940F0E609100017091010181
:103BC00080910201909103012B013C01A2E0440C81
:103BD000551C661C771CAA95D1F74092CF015092D4
:103BE000D0016092D1017092D20120E432E44FE022
:103BF00050E00E943C2149015A018092D3019092E9
:103C0000D401A092D501B092D6012AE18216910486
:103C1000A104B10488F4C301B20124E630E040E01D
:103C200050E00E94D52101E010E00E94551061E0B3
:103C300081E090E00E940F0E4AE1841A9108A108E9
:103C4000B10884E088169104A104B10408F0C0C052
:103C500061E070E081E090E00E94270EC301B201B4
:103C600024E630E040E050E00E94D521D22EE32E41
:103C7000F42E052F162FB72FF82FE92FAFEF0E9444
:103C8000DF222E373A414640510561057105810515
:103C9000910509F008F4DCC1DD86EE86FF86088B0D
:103CA000198BBA8BFB8BEC8B2D853E854F85588904
:103CB00069897A898B899C892115314C4A415D43F8
:103CC000654071058105910569F060F01D86E1ECA4
:103CD000EE878AE18F878DE3888B85E0898B1A8A4E
:103CE0001B8A1C8A8D85809317038E858093180309
:103CF0008F8580931903888980931A03898980931B
:103D00001B038A8980931C038B8980931D038C89F4
:103D100080931E03009101031091020320E03CE315
:103D200043E55CE460E170E080E090E00E94620FB7
:103D300061E081E090E00E940F0ECE010D960E949E
:103D40009604782E2D853E854F85588969897A8914
:103D5000CE0101964C01A12C8CE3B82E93E5C92E1F
:103D6000ECE4DE2EF0E1EF2EF12C00E010E08B8988
:103D70009C890E948002AA24A3942D853E854F85AC
:103D8000588969897A898B899C892F3F354D4141B2
:103D90005E47634071058105910509F008F4A12C87
:103DA000AF92872CC980DA80EB80FC800D811E8168
:103DB0002F81388549855A856B857C8581E090E027
:103DC0000E94770E61E081E090E00E940F0E0F905C
:103DD00061E088E00E94300AE0E0F0E0EF2B09F4B7
:103DE00099CE0E948D09882309F494CE0E94000088
:103DF00091CE181619060CF0D6CE109285001092AE
:103E0000840000B605FE09C0B09BFBCFD6BA00B651
:103E100005FE03C0B09BFBCFD6BA8091860090917F
:103E2000870030E020E000B605FC08C0B09BFBCF67
:103E30002F5F3F4FD6BA23303105A9F700B605FEF4
:103E400008C0B09BFBCF2F5F3F4FD6BA263031055D
:103E5000ACF38090860090908700F12CE12C00B6A6
:103E600005FC0AC0B09BFBCFAFEFEA1AFA0AD6BA3C
:103E7000B3E0EB16F10499F700B605FE0AC0B09B5B
:103E8000FBCFEFEFEE1AFE0AD6BAF6E0EF16F1041A
:103E90009CF3409186005091870010E000E000B64E
:103EA00005FC08C0B09BFBCF0F5F1F4FD6BA033095
:103EB0001105A9F700B605FE08C0B09BFBCF0F5F48
:103EC0001F4FD6BA06301105ACF320908600309013
:103ED00087004215530509F4B4C0B12CA12C2A0166
:103EE000712C612C4F8A588E698E7A8E032E000CAD
:103EF000440B550BA90133272227280D391D4A1DD4
:103F00005B1D281B390B4109510960E070E18EE50A
:103F10009FE50E945E2129013A019701FF0C440BA5
:103F2000550BA901332722278F89988DA98DBA8D2A
:103F3000280F391F4A1F5B1F281939094A095B09D5
:103F400060E070E18EE59FE50E945E21420E531E07
:103F5000641E751E012E000C220B330BA8013327A3
:103F60002227220D331D411D511D8F89988DA98D4A
:103F7000BA8D281B390B4A0B5B0B60E070E18EE5B4
:103F80009FE50E945E21C301B201620F731F841F6F
:103F9000951F23E030E040E050E00E943C214901C1
:103FA0005A01D501C40180519742A109B109803E4F
:103FB0009349A440B10508F0F6CD4D885E884528A8
:103FC000C1F460E088E00E94300A61E08CE00E9469
:103FD000300A6AE070E080E090E00E94D20A60E07F
:103FE00081E090E00E940F0E61E090E080E00E948E
:103FF0000F0E20910001309101014091020150917A
:104000000301A4E6B0E00E94EB20860E971EA81ED6
:10401000B91E10E000E09401A50160E070E080E0CE
:1040200090E00E9455108DE492E00E9481091816DC
:10403000190614F40E94AB1481E090E09E8B8D8BE6
:1040400099CDB8E88B2EB3E19B2EA12CB12CA9CF32
:1040500080E88D878AE18E8786E08F87188A198AA3
:104060001A8A1B8A1C8A20CE8DE793E00E94951243
:1040700083E893E00E94951289E893E00E949512EC
:104080008FE893E00E94951285E993E00E949512D3
:104090008BE993E00E94951281EA93E00E949512C9
:1040A00087EA93E00E9495128DEA93E00C949512B2
:1040B0001F93FC0199278827BC01E89411911032C5
:1040C000E9F3193010F01E30C8F31B3251F01D32E5
:1040D00049F4689406C00E948A20610F711D811DF9
:1040E000911D119110531A30B0F33EF490958095C4
:1040F000709561957F4F8F4F9F4F1F910895BB27FC
:104100004A3031F4992322F4BDE2909581959F4F76
:104110000C94C220592F482F372F262F660F771F58
:10412000881F991F660F771F881F991F620F731FC3
:10413000841F951F660F771F881F991F0895BB273F
:10414000FA01A62F6217710581059105330B30FB2B
:1041500066F0AA27660F771F881F991FAA1FA2174C
:1041600010F0A21B63953850A9F7A05DAA3308F0A0
:10417000A95DA19336F7B111B1931082CA010C94D5
:10418000DB20BB27FB015527AA27880F991FAA1FF1
:10419000A41710F0A41B83955051B9F7A05DAA3362
:1041A00008F0A95DA193009779F7B111B19311922D
:1041B000CB010C94DB20DC01FC01672F719177238C
:1041C000E1F7329704C07C916D9370836291AE17D2
:1041D000BF07C8F308950E942D21A59F900DB49F9D
:1041E000900DA49F800D911D112408952F923F9250
:1041F0004F925F926F927F928F929F92AF92BF92F7
:10420000CF92DF92EF92FF920F931F93CF93DF93A2
:10421000CDB7DEB7CA1BDB0B0FB6F894DEBF0FBEFF
:10422000CDBF09942A88398848885F846E847D844C
:104230008C849B84AA84B984C884DF80EE80FD804E
:104240000C811B81AA81B981CE0FD11D0FB6F894C4
:10425000DEBF0FBECDBFED010895A29FB001B39F99
:10426000C001A39F700D811D1124911DB29F700D7F
:10427000811D1124911D0895A1E21A2EAA1BBB1BBA
:10428000FD010DC0AA1FBB1FEE1FFF1FA217B30722
:10429000E407F50720F0A21BB30BE40BF50B661F38
:1042A000771F881F991F1A9469F7609570958095FC
:1042B00090959B01AC01BD01CF010895052E97FBA0
:1042C0001EF400940E94752157FD07D00E943C21E6
:1042D00007FC03D04EF40C94752150954095309511
:1042E00021953F4F4F4F5F4F089590958095709562
:1042F00061957F4F8F4F9F4F0895DF93CF931F930B
:104300000F939A9DF02D219FF00D8B9DF00D8A9DAE
:10431000E02DF10D039FF00D029FE00DF11D4E9D6C
:10432000E00DF11D5E9DF00D4F9DF00D7F936F939D
:10433000BF92AF925F934F93D5010E942D218B01C5
:10434000AC01D7010E942D21EB01E80FF91FD60126
:104350000E94CC212F913F91D6010E942D21C60FA2
:10436000D71FE81FF91FAF91BF910E94CC212F9159
:104370003F910E942D21C60FD71FE81FF91FD601BC
:104380000E942D21E60FF71F9801BE01CF010F916A
:104390001F91CF91DF9108950E942D21460F571F45
:1043A000C81FD91F08F431960895E894DF93CF937E
:1043B000FC01DB010E942D217F936F93E9019A019B
:1043C000AC01BF93AF933F932F93DF010E942D2148
:1043D00026F46C1B7D0B820B930B9E01EB01FC0101
:1043E0000E94CC21AF91BF912F913F910E94CC218F
:1043F000BE01CF01F9012F913F91CF91DF91089537
:10440000689401C0E894F92FF12B12F00C94342237
:10441000A0E0B0E0EEE0F2E20C94FC20092E05945E
:1044200022F40E949022112392F4F0E80F26FFEF6D
:10443000E094F09400951095B094C094D094A19419
:10444000BF0ACF0ADF0AEF0AFF0A0F0B1F0B0E94F9
:104450003F2207FC0E949022CDB7DEB7ECE00C941F
:104460001821689401C0E8948F929F92CF93DF93B4
:104470000E943F22DF91CF919F908F9008958824D2
:104480009924F401E401B0E49F93AA279A158B04C0
:104490009C04ED05FE05CF05D007A10798F4AD2FCC
:1044A000DC2FCF2FFE2FE92D982C892E982F872FC8
:1044B000762F652F542F432F322F2227B85031F7F4
:1044C000BF9127C01B2EBF91BB27220F331F441F54
:1044D000551F661F771F881F991F881C991CEE1F88
:1044E000FF1FCC1FDD1FAA1FBB1F8A149B04EC05F6
:1044F000FD05CE05DF05A007B10748F08A189B0827
:10450000EC09FD09CE09DF09A00BB10B21601A945B
:10451000E1F62EF49401AF01BE01CD01000C089527
:104520006095709580959095309540955095219522
:104530003F4F4F4F5F4F6F4F7F4F8F4F9F4F0895AC
:10454000002E083090F0982F872F762F652F542F4C
:10455000432F322F22270850F4CF220F331F441F3E
:10456000551F661F771F881F991F0A95B2F7002DE8
:10457000089597FD1094002E083098F00850232FCE
:10458000342F452F562F672F782F892F912DF4CF59
:10459000159497958795779567955795479537958E
:1045A00027950A95AAF71124002D08952A0D3B1D81
:1045B0004C1D5D1D6E1D7F1D801F911F08950024E1
:1045C000A7FD00942A0F301D401D501D601D701D59
:1045D000801D901D08950024A7FD00942A17300522
:1045E0004005500560057005800590050895EE0FA3
:1045F000FF1F0590F491E02D09940F931F93CF9323
:10460000DF938230910510F482E090E0E091B503F1
:10461000F091B60330E020E0B0E0A0E0309799F4EC
:104620002115310509F44AC0281B390B2430310506
:10463000D8F58A819B816115710589F1FB0193830E
:104640008283FE0111C0408151810281138148178C
:104650005907E0F04817590799F4109761F012963E
:104660000C93129713961C933296CF01DF91CF9142
:104670001F910F9108950093B5031093B603F4CFE3
:104680002115310551F04217530738F0A901DB011C
:104690009A01BD01DF01F801C1CFEF01F9CF90937D
:1046A000B6038093B503CDCFFE01E20FF31F8193D4
:1046B00091932250310939832883D7CF2091B303B6
:1046C0003091B403232B41F420910601309107016E
:1046D0003093B4032093B30320910401309105017A
:1046E0002115310541F42DB73EB740910801509195
:1046F0000901241B350BE091B303F091B403E217D9
:10470000F307A0F42E1B3F0B2817390778F0AC01F4
:104710004E5F5F4F2417350748F04E0F5F1F5093D1
:10472000B4034093B303819391939FCFF0E0E0E013
:104730009CCFCF93DF930097E9F0FC01329713826F
:104740001282A091B503B091B603ED0130E020E0F4
:104750001097A1F420813181820F931F2091B30320
:104760003091B4032817390709F061C0F093B403FE
:10477000E093B303DF91CF910895EA01CE17DF07ED
:10478000E8F54A815B819E0141155105B1F7E901C8
:10479000FB83EA8349915991C40FD51FEC17FD079C
:1047A00061F4808191810296840F951FE9019983BC
:1047B0008883828193819B838A83F0E0E0E0129674
:1047C0008D919C9113970097B9F52D913C9111977C
:1047D000CD010296820F931F2091B3033091B40351
:1047E0002817390739F6309751F51092B603109211
:1047F000B503B093B403A093B303BCCFD383C283F8
:1048000040815181840F951FC817D90761F44E5F0D
:104810005F4F88819981480F591F518340838A8156
:104820009B81938382832115310509F0B0CFF093EA
:10483000B603E093B5039ECFFD01DC01C0CF138228
:104840001282D7CFB0E0A0E0E8E2F4E20C94F820C6
:104850008C01009751F4CB010E94FD228C01C8010C
:10486000CDB7DEB7E0E10C941421FC01E60FF71F91
:104870009C0122503109E217F30708F49DC0D901C9
:10488000CD91DC911197C617D70798F0C530D105A7
:1048900030F3CE0104978617970708F3C61BD70B92
:1048A0002297C193D1936D937C93CF010E9499235A
:1048B000D6CF5B01AC1ABD0A4C018C0E9D1EA09197
:1048C000B503B091B603512C412CF12CE12C10977B
:1048D00031F58091B3039091B4038815990509F0DF
:1048E0005CC04616570608F058C0809104019091AC
:1048F0000501009741F48DB79EB740910801509192
:104900000901841B950BE817F90708F055C0F093CF
:10491000B403E093B303F90171836083A0CF8D9159
:104920009C91119712966C90129713967C90139706
:10493000A815B90559F56C0142E0C40ED11CCA1482
:10494000DB0420F1AC014A195B09DA0112961597D4
:1049500080F06282738251834083D9016D937C938E
:10496000E114F10471F0D7011396FC93EE931297C2
:1049700076CF22968C0F9D1FF90191838083F301DE
:10498000EFCFF093B603E093B50369CF481659060D
:1049900008F42C017D01D3019ACFCB010E94FD22A6
:1049A0007C01009749F0AE01B8010E94E724C801DC
:1049B0000E949923870153CF10E000E050CF91115E
:1049C000089581568A5108F4805285580895FB0154
:1049D000DC0102C001900D9241505040D8F708957B
:1049E0006817790768F4FB01DC01E40FF51FA40FD9
:1049F000B51F02C002900E9241505040D8F7089562
:104A00000C94E724FB01DC018D91019080190110C9
:104A1000D9F3990B0895FB01DC0101900D92002060
:104A2000E1F70895FB0151915523A9F0BF01DC0185
:104A30004D9145174111E1F759F4CD010190002046
:104A400049F04D9140154111C9F3FB014111EFCFE0
:104A500081E090E00197089510E0CDE5D0E004C03A
:104A6000FE010E94F7222196CE35D107C9F7F894AE
:024A7000FFCF76
:104A720090C0D6000000B70380002C343C444C5454
:104A82005C5C00000000C309E3081009100A8109F8
:104A92001F09730900000000AA0C7D0C230D5A0C9B
:104AA20088006A0C5B0C0A0046410030303030301E
:104AB200303030303030005053005053313B0054CE
:104AC20058005458303B005258005258303B00496D
:104AD200440049443031393B004149004149303BAF
:104AE200004946002B0031004D44004D44323B004A
:00000001FF
